000107924IFBR01343                     20210414094513                                                                                                                                                                                                                          00000001
10000090320ZBVI      00000000417717151+ 0000090320                                                                                                                                                                                                                             00000001
10000090336ZBVI      00000000496823070+ 0000090336                                                                                                                                                                                                                             00000002
10000090343ZBV2      00000000373084049+ 0000090343                                                                                                                                                                                                                             00000003
10000090349ZBVI      00000000107252353+ 0000090349                                                                                                                                                                                                                             00000004
10000090350ZBVI      00000000207606706+ 0000090350                                                                                                                                                                                                                             00000005
10000090363ZBVI      00000000358032907+ 0000090363                                                                                                                                                                                                                             00000006
10000090366ZBV2      00000000582112931+ 0000090366                                                                                                                                                                                                                             00000007
10000090399ZBVI      00000000972818368+ 0000090399                                                                                                                                                                                                                             00000008
10000090404ZBVI      00000000217140862+ 0000090404                                                                                                                                                                                                                             00000009
10000090550ZBV2      00000000075091792+ 0000090550                                                                                                                                                                                                                             00000010
10000090582ZBVI      00000002433856597+ 0000090582                                                                                                                                                                                                                             00000011
10000090602ZBVI      00000004084926823+ 0000090602                                                                                                                                                                                                                             00000012
10000090606ZBVI      00000002963403715+ 0000090606                                                                                                                                                                                                                             00000013
10000090610ZBVI      00000004405017946+ 0000090610                                                                                                                                                                                                                             00000014
10000090621ZBVI      00000001925313312+ 0000090621                                                                                                                                                                                                                             00000015
10000090701ZBV2      00000000100166761+ 0000090701                                                                                                                                                                                                                             00000016
10000090901ZBVI      00000002310016642+ 0000090901                                                                                                                                                                                                                             00000017
10000090918ZBVI      00000002294746017+ 0000090918                                                                                                                                                                                                                             00000018
10000090947ZBV1      00000000080464124+ 0000090947                                                                                                                                                                                                                             00000019
10000090976ZBV1      00000000157664543+ 0000090976                                                                                                                                                                                                                             00000020
10000090976ZBVI      00000000596677223+ 0000090976                                                                                                                                                                                                                             00000021
10000090990ZBVI      00000000310070851+ 0000090990                                                                                                                                                                                                                             00000022
10000091002ZBVI      00000000756124933+ 0000091002                                                                                                                                                                                                                             00000023
10000091006ZBVI      00000000204001189+ 0000091006                                                                                                                                                                                                                             00000024
10000091010ZBVI      00000000056462251+ 0000091010                                                                                                                                                                                                                             00000025
10000091015ZBVI      00000000166124175+ 0000091015                                                                                                                                                                                                                             00000026
10000091022ZBVI      00000004049601723+ 0000091022                                                                                                                                                                                                                             00000027
10000091032ZBVI      00000001917772726+ 0000091032                                                                                                                                                                                                                             00000028
10000091033ZBVI      00000003467192429+ 0000091033                                                                                                                                                                                                                             00000029
10000091043ZBVI      00000000756917051+ 0000091043                                                                                                                                                                                                                             00000030
10000091044ZBVI      00000003835286285+ 0000091044                                                                                                                                                                                                                             00000031
10000091052ZBV1      00000000440739181+ 0000091052                                                                                                                                                                                                                             00000032
10000091053ZBVI      00000000598071178+ 0000091053                                                                                                                                                                                                                             00000033
10000091056ZBVI      00000000813663714+ 0000091056                                                                                                                                                                                                                             00000034
10000091059ZBVI      00000000537917513+ 0000091059                                                                                                                                                                                                                             00000035
10000091081ZBVI      00000001756002162+ 0000091081                                                                                                                                                                                                                             00000036
10000091090ZBVI      00000003975244634+ 0000091090                                                                                                                                                                                                                             00000037
10000091098ZBVI      00000000549533173+ 0000091098                                                                                                                                                                                                                             00000038
10000091105ZBV1      00000002506718192+ 0000091105                                                                                                                                                                                                                             00000039
10000091105ZBVI      00000002064984250+ 0000091105                                                                                                                                                                                                                             00000040
10000091124ZBVI      00000000282121713+ 0000091124                                                                                                                                                                                                                             00000041
10000091130ZBV1      00000000182574320+ 0000091130                                                                                                                                                                                                                             00000042
10000091140ZBVI      00000003571415673+ 0000091140                                                                                                                                                                                                                             00000043
10000091146ZBVI      00000001316583842+ 0000091146                                                                                                                                                                                                                             00000044
10000091150ZBVI      00000000643835265+ 0000091150                                                                                                                                                                                                                             00000045
10000091151ZBVI      00000002749623958+ 0000091151                                                                                                                                                                                                                             00000046
10000091170ZBVI      00000005220766653+ 0000091170                                                                                                                                                                                                                             00000047
10000091175ZBVI      00000000225760063+ 0000091175                                                                                                                                                                                                                             00000048
10000091195ZBVI      00000000458578411+ 0000091195                                                                                                                                                                                                                             00000049
10000091201ZBVI      00000000797630384+ 0000091201                                                                                                                                                                                                                             00000050
10000091214ZBVI      00000000219589691+ 0000091214                                                                                                                                                                                                                             00000051
10000091248ZBVI      00000000176970714+ 0000091248                                                                                                                                                                                                                             00000052
10000091253ZBVI      00000000234429614+ 0000091253                                                                                                                                                                                                                             00000053
10000091258ZBVI      00000000912900992+ 0000091258                                                                                                                                                                                                                             00000054
10000091307ZBV1      00000001247077262+ 0000091307                                                                                                                                                                                                                             00000055
10000091314ZBVI      00000000248551285+ 0000091314                                                                                                                                                                                                                             00000056
10000091331ZBVI      00000003978699968+ 0000091331                                                                                                                                                                                                                             00000057
10000091334ZBVI      00000000350495327+ 0000091334                                                                                                                                                                                                                             00000058
10000091335ZBVI      00000000721619056+ 0000091335                                                                                                                                                                                                                             00000059
10000091336ZBVI      00000005604498764+ 0000091336                                                                                                                                                                                                                             00000060
10000091337ZBVI      00000001388091433+ 0000091337                                                                                                                                                                                                                             00000061
10000091342ZBVI      00000000630587896+ 0000091342                                                                                                                                                                                                                             00000062
10000091362ZBV9      00000000714748699+ 0000091362                                                                                                                                                                                                                             00000063
10000091362ZBVI      00000003329054892+ 0000091362                                                                                                                                                                                                                             00000064
10000091367ZBVI      00000000979403590+ 0000091367                                                                                                                                                                                                                             00000065
10000091373ZBVI      00000000188360291+ 0000091373                                                                                                                                                                                                                             00000066
10000091374ZBVI      00000000396412111+ 0000091374                                                                                                                                                                                                                             00000067
10000091380ZBV1      00000000403542701+ 0000091380                                                                                                                                                                                                                             00000068
10000091392ZBVI      00000004812474255+ 0000091392                                                                                                                                                                                                                             00000069
10000091420ZBV1      00000000049204602+ 0000091420                                                                                                                                                                                                                             00000070
10000091424ZBVI      00000004795709117+ 0000091424                                                                                                                                                                                                                             00000071
10000091434ZBVI      00000000924224674+ 0000091434                                                                                                                                                                                                                             00000072
10000091471ZBV1      00000000061395897+ 0000091471                                                                                                                                                                                                                             00000073
10000091471ZBVI      00000003434837266+ 0000091471                                                                                                                                                                                                                             00000074
10000091472ZBVI      00000000909352737+ 0000091472                                                                                                                                                                                                                             00000075
10000091477ZBVI      00000002068578803+ 0000091477                                                                                                                                                                                                                             00000076
10000091485ZBV1      00000000087856526+ 0000091485                                                                                                                                                                                                                             00000077
10000091486ZBVI      00000004703387451+ 0000091486                                                                                                                                                                                                                             00000078
10000091488ZBVI      00000000750764562+ 0000091488                                                                                                                                                                                                                             00000079
10000091496ZBVI      00000000127802051+ 0000091496                                                                                                                                                                                                                             00000080
10000091498ZBVI      00000000768995505+ 0000091498                                                                                                                                                                                                                             00000081
10000091504ZBVI      00000003084444836+ 0000091504                                                                                                                                                                                                                             00000082
10000091509ZBVI      00000000504441988+ 0000091509                                                                                                                                                                                                                             00000083
10000091520ZBVI      00000000697112231+ 0000091520                                                                                                                                                                                                                             00000084
10000091521ZBVI      00000000748264756+ 0000091521                                                                                                                                                                                                                             00000085
10000091530ZBVI      00000001360390349+ 0000091530                                                                                                                                                                                                                             00000086
10000091533ZBVI      00000003935131532+ 0000091533                                                                                                                                                                                                                             00000087
10000091555ZBV1      00000000098143877+ 0000091555                                                                                                                                                                                                                             00000088
10000091555ZBVI      00000000896895959+ 0000091555                                                                                                                                                                                                                             00000089
10000091569ZBV1      00000000205323598+ 0000091569                                                                                                                                                                                                                             00000090
10000091571ZBVI      00000002080208659+ 0000091571                                                                                                                                                                                                                             00000091
10000091593ZBVI      00000000743410853+ 0000091593                                                                                                                                                                                                                             00000092
10000091602ZBV1      00000000798438086+ 0000091602                                                                                                                                                                                                                             00000093
10000091609ZBV1      00000000193281960+ 0000091609                                                                                                                                                                                                                             00000094
10000091630ZBVI      00000000453197556+ 0000091630                                                                                                                                                                                                                             00000095
10000091644ZBVI      00000004105030173+ 0000091644                                                                                                                                                                                                                             00000096
10000091645ZBVI      00000004714765774+ 0000091645                                                                                                                                                                                                                             00000097
10000091658ZBVI      00000004511964144+ 0000091658                                                                                                                                                                                                                             00000098
10000091682ZBV1      00000000371800014+ 0000091682                                                                                                                                                                                                                             00000099
10000091682ZBVI      00000000535433239+ 0000091682                                                                                                                                                                                                                             00000100
10000091684ZBVI      00000000533407811+ 0000091684                                                                                                                                                                                                                             00000101
10000091686ZBVI      00000004630271305+ 0000091686                                                                                                                                                                                                                             00000102
10000091697ZBV1      00000001972861258+ 0000091697                                                                                                                                                                                                                             00000103
10000091697ZBVI      00000003342974641+ 0000091697                                                                                                                                                                                                                             00000104
10000091818ZBVI      00000000577643874+ 0000091818                                                                                                                                                                                                                             00000105
10000095092ZBM1      00000000008000000+ 0000095092                                                                                                                                                                                                                             00000106
10000098347ZBM1      00000000009000000+ 0000098347                                                                                                                                                                                                                             00000107
10000102563ZBV9      00000000082985410+ 0000102563                                                                                                                                                                                                                             00000108
10000224222ZBV9      00000000082985410+ 0000224222                                                                                                                                                                                                                             00000109
10000528638ZBV9      00000000082985411+ 0000528638                                                                                                                                                                                                                             00000110
10000662524ZBV9      00000000083469576+ 0000662524                                                                                                                                                                                                                             00000111
10000662833ZBV9      00000000019840882+ 0000662833                                                                                                                                                                                                                             00000112
10000675925ZBV9      00000000010656260+ 0000675925                                                                                                                                                                                                                             00000113
10000730041ZBV9      00000000083459392+ 0000730041                                                                                                                                                                                                                             00000114
10000734230ZBV9      00000000083516326+ 0000734230                                                                                                                                                                                                                             00000115
10000770190ZBV9      00000000082983245+ 0000770190                                                                                                                                                                                                                             00000116
10000809857ZBV9      00000000082656976+ 0000809857                                                                                                                                                                                                                             00000117
10000819915ZBV9      00000000083459393+ 0000819915                                                                                                                                                                                                                             00000118
10000869222ZBV9      00000000083459393+ 0000869222                                                                                                                                                                                                                             00000119
10000890236ZBV9      00000000082985411+ 0000890236                                                                                                                                                                                                                             00000120
10000926542ZBV9      00000000083281393+ 0000926542                                                                                                                                                                                                                             00000121
10000929689ZBV9      00000000031474241+ 0000929689                                                                                                                                                                                                                             00000122
10000948625ZBV9      00000000083425574+ 0000948625                                                                                                                                                                                                                             00000123
10000953228ZBV9      00000000028415610+ 0000953228                                                                                                                                                                                                                             00000124
10001018528ZBV9      00000000082602611+ 0001018528                                                                                                                                                                                                                             00000125
10001048627ZBV9      00000000083221790+ 0001048627                                                                                                                                                                                                                             00000126
10001165281ZBV9      00000000082985411+ 0001165281                                                                                                                                                                                                                             00000127
10001240729ZBV9      00000000082591110+ 0001240729                                                                                                                                                                                                                             00000128
10001300368ZBV9      00000000083183493+ 0001300368                                                                                                                                                                                                                             00000129
10001320037ZBV9      00000000083201293+ 0001320037                                                                                                                                                                                                                             00000130
10001365239ZBV9      00000000082911569+ 0001365239                                                                                                                                                                                                                             00000131
10001377879ZBV9      00000000083108703+ 0001377879                                                                                                                                                                                                                             00000132
10001422016ZBV9      00000000083185274+ 0001422016                                                                                                                                                                                                                             00000133
10001448984ZBV9      00000000083087041+ 0001448984                                                                                                                                                                                                                             00000134
10001471441ZBV9      00000000082656976+ 0001471441                                                                                                                                                                                                                             00000135
10001489657ZBV9      00000000082985411+ 0001489657                                                                                                                                                                                                                             00000136
10001493720ZBV9      00000000082985411+ 0001493720                                                                                                                                                                                                                             00000137
10001512147ZBV9      00000000082985411+ 0001512147                                                                                                                                                                                                                             00000138
10001512202ZBV9      00000000083221790+ 0001512202                                                                                                                                                                                                                             00000139
10001525823ZBV9      00000000082939153+ 0001525823                                                                                                                                                                                                                             00000140
10001533801ZBV9      00000000075695775+ 0001533801                                                                                                                                                                                                                             00000141
10001543695ZBV9      00000000062604353+ 0001543695                                                                                                                                                                                                                             00000142
10001557348ZBV9      00000000083124904+ 0001557348                                                                                                                                                                                                                             00000143
10001596601ZBV9      00000000075878512+ 0001596601                                                                                                                                                                                                                             00000144
10001700753ZBV9      00000000077771690+ 0001700753                                                                                                                                                                                                                             00000145
10001746360ZBV9      00000000082476902+ 0001746360                                                                                                                                                                                                                             00000146
10001770757ZBV9      00000000082252473+ 0001770757                                                                                                                                                                                                                             00000147
10001860302ZBV9      00000000082557902+ 0001860302                                                                                                                                                                                                                             00000148
10001872601ZBV9      00000000070849225+ 0001872601                                                                                                                                                                                                                             00000149
10001909713ZBV9      00000000083201292+ 0001909713                                                                                                                                                                                                                             00000150
10001912284ZBV9      00000000014884100+ 0001912284                                                                                                                                                                                                                             00000151
10001924673ZBV9      00000000083499443+ 0001924673                                                                                                                                                                                                                             00000152
10001946020ZBV9      00000000084018493+ 0001946020                                                                                                                                                                                                                             00000153
10001946877ZBV9      00000000083459392+ 0001946877                                                                                                                                                                                                                             00000154
10001949054ZBV9      00000000082890370+ 0001949054                                                                                                                                                                                                                             00000155
10001950183ZBV9      00000000082890370+ 0001950183                                                                                                                                                                                                                             00000156
10001955504ZBV9      00000000082911569+ 0001955504                                                                                                                                                                                                                             00000157
10001956199ZBV9      00000000082716528+ 0001956199                                                                                                                                                                                                                             00000158
10001956593ZBV9      00000000082985410+ 0001956593                                                                                                                                                                                                                             00000159
10001957202ZBV9      00000000068684758+ 0001957202                                                                                                                                                                                                                             00000160
10001957216ZBV9      00000000068803804+ 0001957216                                                                                                                                                                                                                             00000161
10001957441ZBV9      00000000082985411+ 0001957441                                                                                                                                                                                                                             00000162
10001957529ZBV9      00000000082985410+ 0001957529                                                                                                                                                                                                                             00000163
10001958029ZBV9      00000000082985411+ 0001958029                                                                                                                                                                                                                             00000164
10001958303ZBV9      00000000075970822+ 0001958303                                                                                                                                                                                                                             00000165
10001958566ZBV9      00000000082985411+ 0001958566                                                                                                                                                                                                                             00000166
10001958588ZBV9      00000000082708800+ 0001958588                                                                                                                                                                                                                             00000167
10001958723ZBV9      00000000082708800+ 0001958723                                                                                                                                                                                                                             00000168
10001958727ZBV9      00000000082985411+ 0001958727                                                                                                                                                                                                                             00000169
10001959146ZBV9      00000000082985411+ 0001959146                                                                                                                                                                                                                             00000170
10001959295ZBV9      00000000082985411+ 0001959295                                                                                                                                                                                                                             00000171
10001959527ZBV9      00000000082635250+ 0001959527                                                                                                                                                                                                                             00000172
10001960404ZBV9      00000000082656976+ 0001960404                                                                                                                                                                                                                             00000173
10001960558ZBV9      00000000082656976+ 0001960558                                                                                                                                                                                                                             00000174
10001960613ZBV9      00000000082656976+ 0001960613                                                                                                                                                                                                                             00000175
10001960702ZBV9      00000000082656976+ 0001960702                                                                                                                                                                                                                             00000176
10001961289ZBV9      00000000082939153+ 0001961289                                                                                                                                                                                                                             00000177
10001961329ZBV9      00000000082635250+ 0001961329                                                                                                                                                                                                                             00000178
10001961331ZBV9      00000000082939153+ 0001961331                                                                                                                                                                                                                             00000179
10001961399ZBV9      00000000082939153+ 0001961399                                                                                                                                                                                                                             00000180
10001962484ZBV9      00000000082939153+ 0001962484                                                                                                                                                                                                                             00000181
10001962498ZBV9      00000000082939152+ 0001962498                                                                                                                                                                                                                             00000182
10001962513ZBV9      00000000082939152+ 0001962513                                                                                                                                                                                                                             00000183
10001962539ZBV9      00000000082939152+ 0001962539                                                                                                                                                                                                                             00000184
10001962611ZBV9      00000000082939153+ 0001962611                                                                                                                                                                                                                             00000185
10001964433ZBV9      00000000082906147+ 0001964433                                                                                                                                                                                                                             00000186
10001966688ZBV9      00000000082373402+ 0001966688                                                                                                                                                                                                                             00000187
10001970213ZBV9      00000000083592520+ 0001970213                                                                                                                                                                                                                             00000188
10001970672ZBV9      00000000083201292+ 0001970672                                                                                                                                                                                                                             00000189
10001971953ZBV9      00000000082921780+ 0001971953                                                                                                                                                                                                                             00000190
10001975156ZBV9      00000000070004373+ 0001975156                                                                                                                                                                                                                             00000191
10001975474ZBV9      00000000083334791+ 0001975474                                                                                                                                                                                                                             00000192
10001976202ZBV9      00000000083183493+ 0001976202                                                                                                                                                                                                                             00000193
10001976563ZBV9      00000000083183493+ 0001976563                                                                                                                                                                                                                             00000194
10001976564ZBV9      00000000083385903+ 0001976564                                                                                                                                                                                                                             00000195
10001978754ZBV9      00000000074497500+ 0001978754                                                                                                                                                                                                                             00000196
10001978774ZBV9      00000000078678745+ 0001978774                                                                                                                                                                                                                             00000197
10001978929ZBV9      00000000074497500+ 0001978929                                                                                                                                                                                                                             00000198
10001979094ZBV9      00000000070849225+ 0001979094                                                                                                                                                                                                                             00000199
10001979454ZBV9      00000000083086709+ 0001979454                                                                                                                                                                                                                             00000200
10001981384ZBV9      00000000083274261+ 0001981384                                                                                                                                                                                                                             00000201
10001981956ZBV9      00000000071454525+ 0001981956                                                                                                                                                                                                                             00000202
10001982743ZBV9      00000000075054276+ 0001982743                                                                                                                                                                                                                             00000203
10001983198ZBV9      00000000074720211+ 0001983198                                                                                                                                                                                                                             00000204
10001983954ZBV9      00000000083385903+ 0001983954                                                                                                                                                                                                                             00000205
10001984774ZBV9      00000000072081131+ 0001984774                                                                                                                                                                                                                             00000206
10001985528ZBV9      00000000083201293+ 0001985528                                                                                                                                                                                                                             00000207
10001986120ZBV9      00000000082909376+ 0001986120                                                                                                                                                                                                                             00000208
10001987178ZBV9      00000000009720768+ 0001987178                                                                                                                                                                                                                             00000209
10001987599ZBV9      00000000084500155+ 0001987599                                                                                                                                                                                                                             00000210
10001987787ZBV9      00000000076414280+ 0001987787                                                                                                                                                                                                                             00000211
10001988232ZBV9      00000000083086709+ 0001988232                                                                                                                                                                                                                             00000212
10001988407ZBV9      00000000082683901+ 0001988407                                                                                                                                                                                                                             00000213
10001992262ZBV9      00000000083385903+ 0001992262                                                                                                                                                                                                                             00000214
10001993276ZBV9      00000000080106222+ 0001993276                                                                                                                                                                                                                             00000215
10001995258ZBV9      00000000076281628+ 0001995258                                                                                                                                                                                                                             00000216
10001997682ZBV9      00000000082684510+ 0001997682                                                                                                                                                                                                                             00000217
10001997723ZBV9      00000000083385903+ 0001997723                                                                                                                                                                                                                             00000218
10001997746ZBV9      00000000082602611+ 0001997746                                                                                                                                                                                                                             00000219
10001997831ZBV9      00000000082147612+ 0001997831                                                                                                                                                                                                                             00000220
10001997936ZBV9      00000000083124904+ 0001997936                                                                                                                                                                                                                             00000221
10001998073ZBV9      00000000083124904+ 0001998073                                                                                                                                                                                                                             00000222
900000224IFBR01343                                                                                                                                                                                                                                                              00000224
