000107923IFBR01343                     20210414093022                                                                                                                                                                                                                          00000001
10000090343ZBVI      00000000358553519+ 0000090343                                                                                                                                                                                                                             00000001
10000090540ZBV2      00000000376646549+ 0000090540                                                                                                                                                                                                                             00000002
10000090595ZBV2      00000000580005241+ 0000090595                                                                                                                                                                                                                             00000003
10000090630ZBVI      00000000554268758+ 0000090630                                                                                                                                                                                                                             00000004
10000090657ZBV2      00000000232760368+ 0000090657                                                                                                                                                                                                                             00000005
10000091022ZBV1      00000000272531445+ 0000091022                                                                                                                                                                                                                             00000006
10000091080ZBV1      00000000130809000+ 0000091080                                                                                                                                                                                                                             00000007
10000091105ZBV1      00000002500667047+ 0000091105                                                                                                                                                                                                                             00000008
10000091140ZBVI      00000003585721462+ 0000091140                                                                                                                                                                                                                             00000009
10000091179ZBVI      00000004891607056+ 0000091179                                                                                                                                                                                                                             00000010
10000091186ZBVI      00000000755415106+ 0000091186                                                                                                                                                                                                                             00000011
10000091213ZBV9      00000000853681122+ 0000091213                                                                                                                                                                                                                             00000012
10000091213ZBVI      00000002121999066+ 0000091213                                                                                                                                                                                                                             00000013
10000091288ZBV1      00000000065276118+ 0000091288                                                                                                                                                                                                                             00000014
10000091293ZBV1      00000000924888235+ 0000091293                                                                                                                                                                                                                             00000015
10000091307ZBV1      00000001239954785+ 0000091307                                                                                                                                                                                                                             00000016
10000091314ZBV1      00000000117028485+ 0000091314                                                                                                                                                                                                                             00000017
10000091330ZBV1      00000000181853847+ 0000091330                                                                                                                                                                                                                             00000018
10000091335ZBV1      00000000186714316+ 0000091335                                                                                                                                                                                                                             00000019
10000091368ZBV1      00000000188426179+ 0000091368                                                                                                                                                                                                                             00000020
10000091402ZBV9      00000000032925182+ 0000091402                                                                                                                                                                                                                             00000021
10000091474ZBV1      00000000305950565+ 0000091474                                                                                                                                                                                                                             00000022
10000091498ZBV1      00000000323805448+ 0000091498                                                                                                                                                                                                                             00000023
10000091521ZBVI      00000000780347580+ 0000091521                                                                                                                                                                                                                             00000024
10000091539ZBVI      00000002885948458+ 0000091539                                                                                                                                                                                                                             00000025
10000091592ZBVI      00000003417467251+ 0000091592                                                                                                                                                                                                                             00000026
10000091645ZBVI      00000004722130524+ 0000091645                                                                                                                                                                                                                             00000027
10000091660ZBV1      00000000242809366+ 0000091660                                                                                                                                                                                                                             00000028
10000215119ZBV9      00000002341467610+ 0000215119060                                                                                                                                                                                                                          00000029
10001424673ZBV9      00000002004029672+ 0001424673060                                                                                                                                                                                                                          00000030
10001666365ZBV9      00000000076545351+ 0001666365                                                                                                                                                                                                                             00000031
10001905511ZBV9      00000000074323472+ 0001905511                                                                                                                                                                                                                             00000032
10001930565ZBV9      00000000089999368+ 0001930565                                                                                                                                                                                                                             00000033
10001953428ZBV9      00000000074868684+ 0001953428                                                                                                                                                                                                                             00000034
10001961846ZBV9      00000000090000000+ 0001961846                                                                                                                                                                                                                             00000035
10001978094ZBV9      00000000084555351+ 0001978094                                                                                                                                                                                                                             00000036
10001980585ZBV9      00000000081100976+ 0001980585                                                                                                                                                                                                                             00000037
10001982722ZBV9      00000000071285641+ 0001982722                                                                                                                                                                                                                             00000038
10001985505ZBV9      00000000072247130+ 0001985505                                                                                                                                                                                                                             00000039
10001985585ZBV9      00000000090000000+ 0001985585                                                                                                                                                                                                                             00000040
10001985614ZBV9      00000000082863407+ 0001985614                                                                                                                                                                                                                             00000041
900000043IFBR01343                                                                                                                                                                                                                                                              00000043
